:020000040800F2
:100000000000012071080008C1080008C1080008AC
:10001000C1080008C1080008C1080008000000006D
:10002000000000000000000000000000C1080008FF
:10003000C108000800000000C1080008C10800084D
:10004000C1080008C1080008C1080008C10800086C
:10005000C1080008C1080008C1080008C10800085C
:10006000C1080008C1080008C1080008C10800084C
:10007000C1080008C1080008C1080008C10800083C
:10008000C1080008C1080008C108000800000000FD
:10009000000000000000000000000000C10800088F
:1000A000C1080008C1080008C1080008C10800080C
:1000B000050500082105000841050008C1080008E1
:1000C000C1080008C1080008C1080008C1080008EC
:1000D000C1080008C1080008C108000800000000AD
:1000E000C1080008C1080008C1080008000000009D
:1000F000000000000000000000000000C10800082F
:1001000000000000C108000861050008C1080008DF
:1001100000000000000000000000000000000000DF
:10012000C1080008C1080008C1080008C10800088B
:10013000C1080008000000000000000000000000EE
:10014000000000000000000000000000C1080008DE
:10015000C1080008C1080008C1080008C10800085B
:10016000C1080008C10800080000000000000000ED
:10017000000000000000000000000000000000007F
:1001800000000000C108000800000000000000009E
:04019000C10800089A
:1001940010B5054C237833B9044B13B10448AFF3BD
:1001A40000800123237010BD3000002000000000F7
:1001B4000C09000808B5034B1BB103490348AFF30E
:1001C400008008BD00000000340000200C09000875
:1001D40080B485B000AFB9607A603B600346FB73BE
:1001E400FB7B413BFB73584B1B68FA7B012101FAF3
:1001F40002F21146544A0B4313607B68032B54D814
:1002040001A252F823F000BF1D02000843020008B7
:10021400670200088B020008FB7B4C4A52F823302B
:100224001B68BA685200032101FA02F2D243104655
:10023400FA7B464951F822200340136035E0FB7BEA
:10024400424A52F823301B68BA685200012101FA6D
:1002540002F21046FA7B3D4951F822200343136011
:1002640023E0FB7B394A52F823301B68BA685200FA
:10027400022101FA02F21046FA7B344951F8222095
:100284000343136011E0FB7B304A52F823301B68B0
:10029400BA685200032101FA02F21046FA7B2B4994
:1002A40051F822200343136000BF3B68002B03D0A6
:1002B4003B68012B14D026E0FB7B244A52F8233000
:1002C40004331B680121BA6801FA02F2D2431046D2
:1002D400FA7B1E4951F8222004320340136012E0D5
:1002E400FB7B1A4A52F8233004331B680121BA6895
:1002F40001FA02F21046FA7B144951F82220043222
:100304000343136000BFFB7B104A52F823300C33C5
:100314001B68BA685200032101FA02F2D243134067
:10032400397EBA68520001FA02F21046FA7B074994
:1003340051F822200C320343136000BF1437BD462A
:100344005DF8047B704700BF303802400000002095
:1003540080B485B000AF03463960FB71FB79413B43
:10036400FB71FB79164A52F823301B683A68520035
:10037400032101FA02F21A403B685B0022FA03F3FC
:10038400012B14D1FB790E4A52F8233014331B6825
:1003940001213A6801FA02F21046FA79084951F843
:1003A40022201432434013600023FB7301E0012335
:1003B400FB73FB7B18461437BD465DF8047B70471E
:1003C4000000002080B485B000AFF8600B467A606E
:1003D400FB72FB681B6823F00202FB681A60FB686F
:1003E4001B6843F00402FB681A60FB681B6843F057
:1003F4008002FB681A60FB681B6823F01002FB682C
:100404001A60FB681B68FA7A12011A43FB681A60C7
:10041400FB68DB6843F00102FB68DA60FB687A681A
:100424005A62FB687A68DA6200BF1437BD465DF829
:10043400047B704780B483B000AF78607B681B682E
:1004440043F001027B681A6000BF0C37BD465DF8BB
:10045400047B704780B483B000AF78600B46FB70B8
:100464007B681B69FA78012101FA02F2D2431A402F
:100474007B681A6100BF0C37BD465DF8047B70478A
:1004840080B485B000AF786039607B6803F1404385
:100494001B11164A02FB03F3002B01DA03F2FF33AC
:1004A4009B12FB60FB68032B1AD801A252F823F0BD
:1004B400C5040008CD040008D5040008DD040008C4
:1004C4000B4A3B6813600BE00A4A3B68136007E081
:1004D400094A3B68136003E0084A3B68136000BFA5
:1004E40000BF1437BD465DF8047B7047CDCCCCCC3F
:1004F4004C00002050000020540000205800002030
:1005040080B500AF00214FF08040FFF7A3FF024BFE
:100514001B68984700BF80BD4C00002080B500AF29
:1005240000210448FFF796FF034B1B68984700BF60
:1005340080BD00BF000400405000002080B500AF23
:1005440000210448FFF786FF034B1B68984700BF50
:1005540080BD00BF000800405400002080B500AFFB
:1005640000210448FFF776FF034B1B68984700BF40
:1005740080BD00BF000C00405800002080B500AFD3
:100584000021022000F052F800F066F903461A46F2
:1005940001214FF08040FFF715FF1C2000F02CF8DC
:1005A40005494FF08040FFF76BFF4FF08040FFF7A5
:1005B40041FF00BF80BD00BFC105000880B500AF8A
:1005C4000D214720FFF7C4FE00BF80BD80B582B077
:1005D40002AF00230093002301220D214720FFF7DF
:1005E400F7FD00BFBD4680BD80B500AFFFF7EEFF4D
:1005F400FFF7C4FFFEE7000080B483B000AF0346FA
:10060400FB71FB7903F01F03012202FA03F1064A8E
:10061400FB795B09DBB242F8231000BF0C37BD46FF
:100624005DF8047B704700BF00E100E080B483B054
:1006340000AF03460A46FB711346BB71BB791F2BFF
:1006440047D8FB79042B45D801A252F823F000BF08
:10065400690600087F060008AB060008C10600080A
:10066400950600081E4B1B68BA79012101FA02F2B3
:1006740011461B4A0B4313602CE01A4B1B68BA79D2
:10068400012101FA02F21146164A0B43136021E0DC
:10069400154B1B68BA79012101FA02F21146124A7C
:1006A4000B43136016E0114B1B68BA79012101FA60
:1006B40002F211460D4A0B4313600BE00C4B1B680E
:1006C400BA79012101FA02F21146094A0B43136077
:1006D40000E000BF00BF0C37BD465DF8047B7047E7
:1006E4003038024034380240383802404038024042
:1006F4004438024080B400AF164B1B68154A43F4DB
:1007040070031360144B144A1B681360134B134A91
:100714001B681360124B124A1B681360104B1B6852
:100724000F4A43F00103136000BF0D4B1B6803F035
:100734000203002BF9D0084B1B68074A23F003037C
:100744001360054B044A1B68136000BFBD465DF887
:10075400047B704788ED00E0083802400C38024002
:100764000038024080B487B000AF364B1B6803F0FA
:100774000C033B613B69082B11D03B69082B57D80C
:100784003B69002B03D03B69042B04D050E02E4B73
:100794002E4A1A6050E02C4B2D4A1A604CE02D4B27
:1007A4001B689B0D03F00103FB602A4B1B6803F0DD
:1007B4003F03BB60FB68002B11D0254ABB68B2FB2A
:1007C400F3F3244A12689209C2F3080202FB03F30A
:1007D40007EE903AF8EE677AC7ED057A10E01B4A07
:1007E400BB68B2FBF3F31B4A12689209C2F3080216
:1007F40002FB03F307EE903AF8EE677AC7ED057A49
:10080400144B1B681B0C03F0030301335B007B6078
:100814007B6807EE903AB8EE677AD7ED056AC6EEC4
:10082400877AFCEEE77A17EE902A074B1A6003E00A
:10083400054B064A1A6000BF00BF1C37BD465DF871
:10084400047B7047083802402C0000200024F40088
:1008540040787D010438024080B500AFFFF782FF85
:10086400014B1B68184680BD2C000020DFF834D0F3
:100874000D480E490E4A002302E0D458C4500433F4
:10088400C4188C42F9D30B4A0B4C002301E01360CB
:100894000432A242FBD3FFF72DFF00F011F8FFF75B
:1008A400A3FE70470000012000000020300000205B
:1008B4002C090008300000205C000020FEE7000046
:1008C40070B50D4D0D4C641BA4100026A64209D131
:1008D4000B4D0C4C00F018F8641BA4100026A64223
:1008E40005D170BD55F8043B98470136EEE755F83D
:1008F400043B98470136F2E724090008240900085C
:100904002409000828090008F8B500BFF8BC08BC91
:100914009E467047F8B500BFF8BC08BC9E467047B9
:04092400B90100080D
:04092800950100082D
:10092C00000002400004024000080240000C02409B
:10093C00001002400014024000180240001C02404B
:10094C000020024000240240002802400024F40051
:040000050800087176
:00000001FF
