:020000040800F2
:1000000000000120F51600084517000845170008F4
:1000100045170008451700084517000800000000B4
:10002000000000000000000000000000451700086C
:100030004517000800000000451700084517000894
:100040004517000845170008451700084517000820
:100050004517000845170008451700084517000810
:100060004517000845170008451700084517000800
:1000700045170008451700084517000845170008F0
:100080004517000845170008451700080000000044
:1000900000000000000000000000000045170008FC
:1000A00045170008451700084517000845170008C0
:1000B00045170008451700084517000845170008B0
:1000C00045170008451700084517000845170008A0
:1000D00045170008451700084517000800000000F4
:1000E00045170008451700084517000800000000E4
:1000F000000000000000000000000000451700089C
:1001000000000000451700084517000845170008C3
:1001100000000000000000000000000000000000DF
:100120003513000845170008451700084517000853
:10013000451700080000000000000000000000005B
:10014000000000000000000000000000451700084B
:10015000451700084517000845170008451700080F
:1001600045170008451700080000000000000000C7
:10017000000000000000000000000000000000007F
:10018000000000004517000800000000000000000B
:040190004517000807
:1001980010B5054C237833B9044B13B10448AFF3B9
:1001A80000800123237010BD7C00002000000000A7
:1001B8009819000808B5034B1BB103490348AFF36E
:1001C800008008BD00000000800000209819000889
:1001D80081F0004102E000BF83F0004330B54FEAF0
:1001E80041044FEA430594EA050F08BF90EA020F5D
:1001F8001FBF54EA000C55EA020C7FEA645C7FEAF0
:10020800655C00F0E2804FEA5454D4EB5555B8BF12
:100218006D420CDD2C4480EA020281EA030382EA83
:10022800000083EA010180EA020281EA0303362D15
:1002380088BF30BD11F0004F4FEA01314FF4801CE8
:100248004CEA113102D0404261EB410113F0004FFA
:100258004FEA03334CEA133302D0524263EB4303B1
:1002680094EA050F00F0A780A4F10104D5F1200E4F
:100278000DDB02FA0EFC22FA05F2801841F10001AA
:1002880003FA0EF2801843FA05F359410EE0A5F17E
:1002980020050EF1200E012A03FA0EFC28BF4CF0AF
:1002A800020C43FA05F3C01851EBE37101F0004565
:1002B80007D54FF0000EDCF1000C7EEB00006EEB72
:1002C8000101B1F5801F1BD3B1F5001F0CD34908FC
:1002D8005FEA30004FEA3C0C04F101044FEA445253
:1002E80012F5800F80F09A80BCF1004F08BF5FEADA
:1002F800500C50F1000041EB045141EA050130BDBA
:100308005FEA4C0C404141EB0101013C28BFB1F5CB
:10031800801FE9D291F0000F04BF01460020B1FA16
:1003280081F308BF2033A3F10B03B3F120020CDAE9
:100338000C3208DD02F1140CC2F10C0201FA0CF0C7
:1003480021FA02F10CE002F11402D8BFC2F1200C2C
:1003580001FA02F120FA0CFCDCBF41EA0C019040E2
:10036800E41AA2BF01EB0451294330BD6FEA04042B
:100378001F3C1CDA0C340EDC04F11404C4F1200216
:1003880020FA04F001FA02F340EA030021FA04F328
:1003980045EA030130BDC4F10C04C4F1200220FA7F
:1003A80002F001FA04F340EA0300294630BD21FABD
:1003B80004F0294630BD94F0000F83F4801306BF83
:1003C80081F480110134013D4EE77FEA645C18BF77
:1003D8007FEA655C29D094EA050F08BF90EA020F0E
:1003E80005D054EA000C04BF1946104630BD91EA06
:1003F800030F1EBF0021002030BD5FEA545C05D109
:100408004000494128BF41F0004130BD14F5800447
:100418003CBF01F5801130BD01F0004545F0FE41BB
:1004280041F470014FF0000030BD7FEA645C1ABFF0
:10043800194610467FEA655C1CBF0B46024650EA27
:10044800013406BF52EA033591EA030F41F4002153
:1004580030BD00BF90F0000F04BF0021704730B5D9
:100468004FF4806404F132044FF000054FF00001AE
:1004780050E700BF90F0000F04BF0021704730B56F
:100488004FF4806404F1320410F0004548BF404244
:100498004FF000013EE700BF42004FEAE2014FEA99
:1004A80031014FEA02701FBF12F07F4393F07F4F74
:1004B80081F06051704732F07F4208BF704793F077
:1004C8007F4F04BF41F40021704730B54FF460748A
:1004D80001F0004521F000411CE700BF50EA01028D
:1004E80008BF704730B54FF000050AE050EA010236
:1004F80008BF704730B511F0004502D5404261EBA6
:1005080041014FF4806404F132045FEA915C3FF4E6
:10051800D8AE4FF003025FEADC0C18BF03325FEA83
:10052800DC0C18BF033202EBDC02C2F1200300FA34
:1005380003FC20FA02F001FA03FE40EA0E0021FA59
:1005480002F11444BDE600BF70B54FF0FF0C4CF447
:10055800E06C1CEA11541DBF1CEA135594EA0C0FF9
:1005680095EA0C0F00F0DEF82C4481EA030621EA34
:100578004C5123EA4C5350EA013518BF52EA03356F
:1005880041F4801143F4801338D0A0FB02CE4FF021
:100598000005E1FB02E506F00042E0FB03E54FF051
:1005A8000006E1FB03569CF0000F18BF4EF0010E49
:1005B800A4F1FF04B6F5007F64F5407404D25FEA45
:1005C8004E0E6D4146EB060642EAC62141EA5551F8
:1005D8004FEAC52040EA5E504FEACE2EB4F1FD0C3A
:1005E80088BFBCF5E06F1ED8BEF1004F08BF5FEAB8
:1005F800500E50F1000041EB045170BD06F000466A
:1006080046EA010140EA020081EA0301B4EB5C0416
:10061800C2BFD4EB0C0541EA045170BD41F480110E
:100628004FF0000E013C00F3AB8014F1360FDEBF33
:10063800002001F0004170BDC4F10004203C35DA0F
:100648000C341BDC04F11404C4F1200500FA05F392
:1006580020FA04F001FA05F240EA020001F0004233
:1006680021F0004110EBD37021FA04F642EB0601A9
:100678005EEA430E08BF20EAD37070BDC4F10C04D3
:10068800C4F1200500FA04F320FA05F001FA04F297
:1006980040EA020001F0004110EBD37041F1000183
:1006A8005EEA430E08BF20EAD37070BDC4F120058E
:1006B80000FA05F24EEA020E20FA04F301FA05F2F6
:1006C80043EA020321FA04F001F0004121FA04F29E
:1006D80020EA020000EBD3705EEA430E08BF20EA6E
:1006E800D37070BD94F0000F0FD101F000464000A8
:1006F80041EB010111F4801F08BF013CF7D041EA2A
:10070800060195F0000F18BF704703F0004652002D
:1007180043EB030313F4801F08BF013DF7D043EAFE
:100728000603704794EA0C0F0CEA135518BF95EAB4
:100738000C0F0CD050EA410618BF52EA4306D1D13B
:1007480081EA030101F000414FF0000070BD50EA5A
:10075800410606BF1046194652EA430619D094EAE4
:100768000C0F02D150EA013613D195EA0C0F05D1CE
:1007780052EA03361CBF104619460AD181EA030122
:1007880001F0004141F0FE4141F470014FF00000DA
:1007980070BD41F0FE4141F4780170BD70B54FF075
:1007A800FF0C4CF4E06C1CEA11541DBF1CEA1355F5
:1007B80094EA0C0F95EA0C0F00F0A7F8A4EB0504D7
:1007C80081EA030E52EA03354FEA013100F08880CE
:1007D8004FEA03334FF0805545EA131343EA126397
:1007E8004FEA022245EA111545EA10654FEA00264C
:1007F8000EF000419D4208BF964244F1FD0404F505
:10080800407402D25B084FEA3202B61A65EB030560
:100818005B084FEA32024FF480104FF4002CB6EB1D
:10082800020E75EB030E22BFB61A754640EA0C009D
:100838005B084FEA3202B6EB020E75EB030E22BFDD
:10084800B61A754640EA5C005B084FEA3202B6EB1E
:10085800020E75EB030E22BFB61A754640EA9C00DD
:100868005B084FEA3202B6EB020E75EB030E22BFAD
:10087800B61A754640EADC0055EA060E18D04FEA6B
:10088800051545EA16754FEA06164FEAC30343EA0B
:1008980052734FEAC2025FEA1C1CC0D111F4801FD8
:1008A8000BD141EA00014FF000004FF0004CB6E7D1
:1008B80011F4801F04BF01430020B4F1FD0C88BF70
:1008C800BCF5E06F3FF6AFAEB5EB030C04BFB6EB7B
:1008D800020C5FEA500C50F1000041EB045170BD6E
:1008E8000EF0004E4EEA113114EB5C04C2BFD4EB9B
:1008F8000C0541EA045170BD41F480114FF0000E1F
:10090800013C90E645EA060E8DE60CEA135594EA9A
:100918000C0F08BF95EA0C0F3FF43BAF94EA0C0F9D
:100928000AD150EA01347FF434AF95EA0C0F7FF412
:1009380025AF104619462CE795EA0C0F06D152EA66
:1009480003353FF4FDAE1046194622E750EA41064A
:1009580018BF52EA43067FF4C5AE50EA41047FF45B
:100968000DAF52EA43057FF4EBAE12E74FF0FF3CC0
:1009780006E000BF4FF0010C02E000BF4FF0010C91
:100988004DF804CD4FEA410C7FEA6C5C4FEA430C0A
:1009980018BF7FEA6C5C1BD001B050EA410C0CBF59
:1009A80052EA430C91EA030F02BF90EA020F0020BB
:1009B800704710F1000F91EA030F58BF994208BF22
:1009C80090422CBFD8176FEAE37040F001007047DF
:1009D8004FEA410C7FEA6C5C02D150EA013C07D136
:1009E8004FEA430C7FEA6C5CD6D152EA033CD3D081
:1009F8005DF8040B704700BF8446104662468C467B
:100A08001946634600E000BF01B5FFF7B7FF0028AD
:100A180048BF10F1000F01BD4DF808EDFFF7F4FFD6
:100A28000CBF012000205DF808FB00BF4DF808ED61
:100A3800FFF7EAFF34BF012000205DF808FB00BF84
:100A48004DF808EDFFF7E0FF94BF012000205DF8A6
:100A580008FB00BF4DF808EDFFF7CEFF94BF01205B
:100A680000205DF808FB00BF4DF808EDFFF7C4FF54
:100A780034BF012000205DF808FB00BF4A0011D2F6
:100A880012F5001211D20DD56FF47873B3EB6252E0
:100A98000ED44FEAC12343F0004343EA505323FAEC
:100AA80002F070474FF00000704750EA013002D161
:100AB8004FF0FF3070474FF00000704780B483B0AC
:100AC80000AF78607B680B4A934206D10A4B1B68DB
:100AD800094A43F40013136005E0074B1B68064AF4
:100AE80043F48003136000BF0C37BD465DF8047BF8
:100AF800704700BF006002403038024080B487B0C1
:100B080000AFF8600B467A60FB72FB7A072B01D9BD
:100B1800012385E27B689B7A022B05D1FB68394A61
:100B2800934201D101237BE27B68DB7B012B0CD153
:100B38007B681B7C002B08D17B681B8903F00103B1
:100B48009BB2002B23D001236AE27B68DB7B022B5C
:100B58000CD17B681B7C002B08D17B681B8903F0B8
:100B680003039BB2002B12D0012359E27B68DB7B85
:100B7800022B0CD17B681B7C012B08D17B681B895D
:100B880003F001039BB2002B01D0012348E27B68EC
:100B98005B7B002B7B685B7B002B03D17B689B7B9B
:100BA800002B18D07B685B7C012B14D17B685B7BA6
:100BB8009AB27B68D97B7B681B7CB1FBF3F3DBB211
:100BC8009BB212FB03F3FB827B681B89FA8A9A4269
:100BD80001D0012324E27B685B7C012B05D17B6873
:100BE8009B7E012B01D101231AE27B681A7C7B686A
:100BF800DB7B9A4208D07B68DB7E002B04D1012383
:100C08000EE200BF00600240FA7AF96813465B0002
:100C18001344DB000B44103300221A6000BFFA7A39
:100C2800F96813465B001344DB000B4410331B6860
:100C380003F00103002BF2D17B681B89FA7A18466E
:100C4800F96813465B001344DB000B441433186047
:100C5800FA7AF96813465B001344DB000B4410333F
:100C68001B687A68D27C51027A68927C92020A43A5
:100C78001146FA7A1943F86813465B001344DB00FF
:100C8800034410331960FA7AF96813465B00134479
:100C9800DB000B4410331B687A68D27B51037A68F7
:100CA800127CD2020A431146FA7A1943F8681346AD
:100CB8005B001344DB00034410331960FA7AF968C7
:100CC80013465B001344DB000B4424331B68FA7A99
:100CD80023F08001F86813465B001344DB000344EB
:100CE80024331960FA7AF96813465B001344DB0071
:100CF8000B4424331B687A68127ED2011146FA7AB3
:100D08001943F86813465B001344DB00034424339B
:100D18001960FA7AF96813465B001344DB000B4448
:100D280010331B687A68D27D51007A68527DD200F0
:100D380011437A68927D920011437A68127D1201FC
:100D48000A431146FA7A1943F86813465B001344BC
:100D5800DB00034410331960FA7AF96813465B0024
:100D68001344DB000B4410331B687A68D27A5206AE
:100D78001146FA7A1943F86813465B001344DB00FE
:100D8800034410331960FA7AF96813465B00134478
:100D9800DB000B4410331B687A68127B120411467F
:100DA800FA7A1943F86813465B001344DB000344DE
:100DB80010331960FA7AF96813465B001344DB00B4
:100DC8000B4410331B687A68527BD1057A68927B92
:100DD80052050A431146FA7A1943F86813465B002C
:100DE8001344DB00034410331960FA7AF968134698
:100DF8005B001344DB000B4424331B687A68527E83
:100E08001146FA7A1943F86813465B001344DB006D
:100E1800034424331960FA7AF96813465B001344D3
:100E2800DB000B4410331B687A68927A92011146F2
:100E3800FA7A1943F86813465B001344DB0003444D
:100E4800103319607B689B7A002B04D07B689B7AEF
:100E5800012B40F08D80FA7AF96813465B00134441
:100E6800DB000B4410331B687A68927E52011146EE
:100E7800FA7A1943F86813465B001344DB0003440D
:100E880010331960FA7AF96813465B001344DB00E3
:100E98000B4424331B68FA7A23F00C01F8681346D4
:100EA8005B001344DB00034424331960FA7AF968C1
:100EB80013465B001344DB000B4424331B687A6839
:100EC800D27E92001146FA7A1943F86813465B00FD
:100ED8001344DB00034424331960FA7AF968134693
:100EE8005B001344DB000B4410331B687A68527CA8
:100EF80012021146FA7A1943F86813465B00134444
:100F0800DB000344103319607B689B7A002B17D1F0
:100F1800FB7A7A681168F8685A1C13465B00134418
:100F2800DB0003441960FB7A7A685168F8685A1C38
:100F380013465B001344DB000344043319606EE07E
:100F4800FB7A7A681168F8685A1C13465B001344E8
:100F5800DB00034404331960FB7A7A685168F86847
:100F68005A1C13465B001344DB000344196056E027
:100F78007B689B7A022B52D1FA7AF96813465B0098
:100F88001344DB000B4410331B68FA7A23F020016A
:100F9800F86813465B001344DB0003441033196000
:100FA800FA7AF96813465B001344DB000B442433D8
:100FB8001B68FA7A43F00401F86813465B0013448F
:100FC800DB00034424331960FA7AF96813465B009E
:100FD8001344DB000B4410331B68FA7A23F4807146
:100FE800F86813465B001344DB00034410331960B0
:100FF800FB7A7A681168F8685A1C13465B00134438
:10100800DB0003441960FB7A7A685168F8685A1C57
:1010180013465B001344DB000344043319600023C8
:1010280018461C37BD465DF8047B704780B483B012
:1010380000AF78600B46FB70FA78796813465B005E
:101048001344DB000B4410331B68FA7843F00101AA
:10105800786813465B001344DB00034410331960BF
:1010680000BF0C37BD465DF8047B704780B485B07F
:1010780000AFB9607A603B600346FB73FB7B413B82
:10108800FB73584B1B68FA7B012101FA02F21146E7
:10109800544A0B4313607B68032B54D801A252F8BF
:1010A80023F000BFBD100008E31000080711000876
:1010B8002B110008FB7B4C4A52F823301B68BA6896
:1010C8005200032101FA02F2D2431046FA7B464944
:1010D80051F822200340136035E0FB7B424A52F866
:1010E80023301B68BA685200012101FA02F2104647
:1010F800FA7B3D4951F822200343136023E0FB7B30
:10110800394A52F823301B68BA685200022101FAA2
:1011180002F21046FA7B344951F822200343136047
:1011280011E0FB7B304A52F823301B68BA68520042
:10113800032101FA02F21046FA7B2B4951F82220CA
:101148000343136000BF3B68002B03D03B68012BAF
:1011580014D026E0FB7B244A52F8233004331B6862
:101168000121BA6801FA02F2D2431046FA7B1E49FD
:1011780051F8222004320340136012E0FB7B1A4A24
:1011880052F8233004331B680121BA6801FA02F2CD
:101198001046FA7B144951F82220043203431360A5
:1011A80000BFFB7B104A52F823300C331B68BA6827
:1011B8005200032101FA02F2D2431340397EBA6881
:1011C800520001FA02F21046FA7B074951F8222030
:1011D8000C320343136000BF1437BD465DF8047B2F
:1011E800704700BF303802400000002080B487B04C
:1011F80000AF0346B9607A60FB73FB7B413BFB732E
:10120800FB7B224A52F823301B68BA68520003213C
:1012180001FA02F21A40BB685B0022FA03F3012BC1
:101228002BD17B68002B12D0FB7B184A52F8233055
:1012380014331B680121BA6801FA02F21046FA7BDE
:10124800124951F8222014320343136012E0FB7B49
:101258000E4A52F8233014331B680121BA6801FA88
:1012680002F2D2431046FA7B084951F82220143280
:10127800034013600023FB7501E00123FB75FB7D30
:1012880018461C37BD465DF8047B704700000020F7
:1012980080B483B000AF03463960FB711346BB715D
:1012A800FB79413BFB713B68072B1AD8BA793B683D
:1012B8009B0002FA03F31846FB791B4A52F82330C5
:1012C80020331B683A6892000F2101FA02F2D243D8
:1012D8001340FA79144951F822202032034313604D
:1012E8001BE0BA793B68083B9B0002FA03F31846F7
:1012F800FB790D4A52F8233024331B683A68083AC0
:1013080092000F2101FA02F2D2431340FA790649FA
:1013180051F8222024320343136000BF0C37BD4626
:101328005DF8047B704700BF0000002080B500AF67
:10133800024800F0B9F900BF80BD00BF9800002046
:1013480080B586B002AF0023009300230222092152
:101358004120FFF78BFE072209214120FFF798FF64
:1013680000233B7000237B700023BB7000233B737A
:101378000023FB7200237B720023BB7100237B7167
:1013880000233B720123BB720023FB7000233B71D7
:101398000123FB713B46184600F0BAF800BF10372E
:1013A800BD4680BD80B58AB002AF294B7B60294B12
:1013B8003B6000237B740023FB7200237B730023B4
:1013C800BB730123FB7603237B760023BB760123C3
:1013D800BB740123FB740023FB7300233B74642359
:1013E8003B8103233B730223BB720023BB7500239D
:1013F800FB7500233B7600237B750023BB75012317
:101408003B751548FFF75AFB3B461A460021124820
:10141800FFF774FB0346FB77FB7F012B0CD10023FE
:1014280000930023012200214120FFF71FFE012223
:1014380000214120FFF7DAFE382000F017F80021DC
:101448000548FFF7F3FD00BF2037BD4680BD00BF4C
:1014580098000020180000200064024080B500AF0A
:10146800FFF76EFFFFF79EFFFEE7000080B483B032
:1014780000AF0346FB71FB7903F01F03012202FA58
:1014880003F1064AFB795B09DBB242F8231000BF7F
:101498000C37BD465DF8047B704700BF00E100E0F3
:1014A80080B400AF164B1B68154A43F470031360F1
:1014B800144B144A1B681360134B134A1B681360C0
:1014C800124B124A1B681360104B1B680F4A43F0FB
:1014D8000103136000BF0D4B1B6803F00203002BD0
:1014E800F9D0084B1B68074A23F003031360054B28
:1014F800044A1B68136000BFBD465DF8047B704753
:1015080088ED00E0083802400C38024000380240FC
:10151800B0B586B000AF7860534B1B68524A43F0B1
:1015280010031360514B00221A60504B1B684F4A3E
:1015380043F4005313607B689B78C3F102034FF4B4
:10154800963202FB03F31846FEF794FF02460B4659
:1015580043A1D1E90001FFF721F902460B46C7E98B
:10156800042397ED040B00F093F953EC102BD7E903
:101578000401FEF731FE02460B4614461D467B6801
:101588009B78C3F10203DB001846FEF773FF02469F
:101598000B4620462946FEF7D7FF02460B4643EC8A
:1015A800172BB0EE470AF0EE670A00F0EDF853EC9F
:1015B800102B10461946FFF761FA0346FB73D7E96B
:1015C8000401FFF75BFA0346BB81FA7BBB891B0169
:1015D8001A43274B1A607B689B7A1A037B685B7AED
:1015E800DB021A437B68DB7A9B021A437B681B7B0E
:1015F8005B021A431F4B1A601C4B1B687A6892786F
:10160800D1037A68D278120311437A681278920269
:1016180011437A685278520211437A689279120219
:1016280011437A681279920111437A68527952010A
:1016380011437A68127A92000A4311460B4A0B4307
:1016480013600A4B1B687A68D279D2001146074AA0
:101658000B43136000BF1837BD46B0BDAFF3008021
:101668000000000080846E41443802400C100140A4
:10167800081001401010014080B483B000AF034649
:10168800FB71074B1B68064A23F040031360054AA9
:10169800FB79136000BF0C37BD465DF8047B7047CB
:1016A800001001400410014080B582B000AF78609E
:1016B8000EE07B681B781846FFF7DEFF00BF0A4B79
:1016C8001B6803F04003002BF9D07B6801337B6073
:1016D8007B681B78002BECD10020FFF7CDFF00BF03
:1016E8000837BD4680BD00BF00100140DFF834D088
:1016F8000D480E490E4A002302E0D458C450043362
:10170800C4188C42F9D30B4A0B4C002301E0136038
:101718000432A242FBD3FFF7C3FE00F011F8FFF733
:101728009DFE704700000120000000207C00002082
:10173800B81900087C000020FC000020FEE700002B
:1017480070B50D4D0D4C641BA4100026A64209D19E
:101758000B4D0C4C00F01CF9641BA4100026A6428B
:1017680005D170BD55F8043B98470136EEE755F8AA
:10177800043B98470136F2E7B0190008B019000891
:10178800B0190008B419000851EC100B2DE9F0410C
:10179800C1F30A57A7F2FF36132E10EE105A10EEB7
:1017A800108A0C4630DC002E12DA35A3D3E9002368
:1017B800FEF714FD00220023FFF756F928B1002C8C
:1017C80055DB2C4357D0304C00252146284625E0D0
:1017D8002E4F374101EA070303431FD028A3D3E95B
:1017E8000023FEF7FBFC00220023FFF73DF9002849
:1017F800EBD0002CC2BF4FF4801343FA06F6A419AD
:1018080024EA07040025E0E7332E0BDDB6F5806FE8
:1018180004D110EE102A0B46FEF7E0FC41EC100B49
:10182800BDE8F081A7F213474FF0FF3323FA07F71B
:101838000742F3D012A3D3E90023FEF7CFFC00221E
:101848000023FFF711F90028BFD0002C02DD142E69
:1018580003D1013425EA0705B7E70123C6F13406A9
:1018680003FA06F63544454538BFE418F2E7002583
:101878004FF00044A9E72546A7E700BFAFF3008073
:101888009C7500883CE4377E0000F03FFFFF0F00A6
:1018980051EC100B2DE9F041C1F30A57A7F2FF36BE
:1018A800132E10EE105A10EE108A0C4632DC002E61
:1018B80014DA33A3D3E90023FEF790FC00220023B7
:1018C800FFF7D2F838B1002C57DA24F000431D4353
:1018D80001D02D4C00252146284625E02B4F3741C5
:1018E80001EA070303431FD025A3D3E90023FEF72A
:1018F80075FC00220023FFF7B7F80028EBD0002C76
:10190800BEBF4FF4801343FA06F6A41924EA07046D
:101918000025E0E7332E0BDDB6F5806F04D110EE1D
:10192800102A0B46FEF75AFC41EC100BBDE8F0817B
:10193800A7F213474FF0FF3323FA07F70742F3D014
:101948000FA3D3E90023FEF749FC00220023FFF789
:101958008BF80028BFD0002C02DA142E03D10134F2
:1019680025EA0705B7E70123C6F1340603FA06F6A8
:101978003544454538BFE418F2E700252C46AAE768
:101988009C7500883CE4377E0000F0BFFFFF0F0025
:10199800F8B500BFF8BC08BC9E467047F8B500BF54
:0819A800F8BC08BC9E46704724
:0419B000BD0100086D
:0419B400990100088D
:1019B800000002400004024000080240000C0240FF
:1019C80000100240001C024068656C6C6F20776F45
:1019D800726C64210000000000000000000000009C
:1019E80000000000000000000000000000000000EF
:1019F80000000000000000000000000000000000DF
:101A080000000000000000000000000000000000CE
:101A180000000000000000000000000000000000BE
:0C1A2800000000000000000000000000B2
:04000005080016F5E4
:00000001FF
